:020000040000FA
:060000000212F2020811D9
:03002B000210BA06
:03003300020E2694
:03004300020F8821
:030053000207465B
:03006B00020E0082
:100083000207A52083F8822A8427850D81118248DF
:1000930083A182B783B7837282DF81CE825E81625E
:1000A30080B980070000000100000001000000018A
:1000B30000000001000000010401030101059B850C
:1000C3000000000100F8EF0700001000FFFF000030
:1000D3000504000000030001FF0020FD000206FFED
:1000E300FF1E01040000B316000000E8030000FF38
:1000F300FF04170188130000E80300006400640094
:10010300B801A0BB0D00A0BB0D0002020207040151
:10011300051E02051E020A0A010108080103B80BA5
:1001230002803E0102FEFFE8030A050001FFFF0211
:100133000A011401E030313233343536373839416E
:10014300424344454600286E756C6C20706F696E9F
:1001530074657229003031323334353637383961BA
:100163006263646566003F3F3F000000807F0000DC
:10017300803FF9021550B743BA510000204100E710
:10018300DB2E0000A04005030101FF0F312D00000D
:1001930000009D2B00000000FF000000FF00121371
:1001A300116046121302603DE9687008F618F618EC
:1001B300F618F622748067F71201D50909097480CD
:1001C30067F722121302601D121311700519191912
:1001D300801A1211DE701F1211F2C37003E6673327
:1001E30019191940071818182208080874FFF61877
:1001F300F618F618F6221211F2601712139F7021E7
:1002030092F01213A87019501720F0140808080967
:100213000909E7F61819E7F61819E7F61819E7F6C2
:10022300221213A860E6E869701F0808E62480F626
:1002330008E436F618547FB47F0CE654806007F662
:10024300E418F618F622181822E9C6CC08C6CD0819
:10025300C6CE08C6CFC0E0E8C0E0EAC0E0EBC0E02D
:1002630009E9F809E7FA09E7FBE6F918E6F8C3EC48
:1002730098ED99EE9AEBC2E7F5F0EFC2E795F050EF
:100283000E600CEBCFFBEACEFAE9CDF9E8CCF8EA45
:10029300A2E7D2E7FAEB33FB13F5F0EEA2E7D2E7DE
:1002A300FEEF33FFC5F013A2E730E601B313C5F049
:1002B300C3C0E0C0F07F00C39BFB605E9418600F77
:1002C300401D14601AD0E023F9D0E0F80203A78A96
:1002D300F0E9486003D2F0E4AFF0FAF9F8803BEBC1
:1002E30030E40D89F0EA6003D2F0E4AFF0F9CAF824
:1002F300EB30E30D88F0EF6002D2F0AFF0E4CAC94F
:10030300F8EB54076014FBC3EA13FAE913F9E81393
:10031300F8EF135002D2E0FFDBEDD0E0C0E030E7AE
:1003230039C3E49FFFF5F0EC98FC42F0ED99FD42F0
:10033300F0EE9AFE42F0D0E0F9D0E0F8E5F0607A12
:10034300E923F9EE20E742D8028067C3EF33FFECDD
:1003530033FCED33FDEE33FE80EAEC28FCED39FD92
:10036300EE3AFED0E023F9D0E0F84002801BC3EE62
:1003730013FEED13FDEC13FCEF135002D2E0FF0864
:10038300B800067F7F74FF802EEF3350178CF02068
:10039300F00260100CBC000C0DBD00080EBE000482
:1003A30008E860DFE933E813FFEE2313FE4F4D4CFB
:1003B3008008E95480FFE4FEFDFCEE33EF33F47074
:1003C30004FCFD7E80D0E0FBD0E0FAD0E0F8D0E082
:1003D300CFC618CEC618CDC618CCC6F92212130242
:1003E300700418181822121311700D74FFF61819DF
:1003F300F61819F61819F622E7548066F61213A8B0
:10040300700F12139F70F014F608F608F608F680C2
:10041300D112139F700CF608F608768008E6447F25
:1004230080EC1211F5700C1211E160BFE65480F6F6
:10043300E480BB1211E1700519191980A5E86970F0
:100443000C763F18768018F618F6E8F922E6CDC048
:10045300E018ECC0E0E633CD33CDD313F6E719FC57
:10046300E7191933CC33C3947F400ECD9D50240834
:10047300E65480F6E418F6800FF4043D1450140893
:10048300E6447FF6187680E418F618F6D0E0FCD040
:10049300E0FD22CCD313CCFD18E4C6CBC0E018E4B6
:1004A300C6CAC0E00808ED08C633E613F618E433FD
:1004B300C675F003C3CA97CA09CB97CB199C4004EE
:1004C3007D08802EBD000302058916B6FF050606CA
:1004D300081618C3CA33CACB33CB33CA27CA09CBCE
:1004E30037CB193CC37D08803E187D0820E75CC6E6
:1004F30033C6CA33CACB33CB33DDF1D5F0EB30E7A8
:100503007BCA97CA09CB974ACB199C406F4B70257E
:10051300E620E0218066187D08C3CA97CA09CB97F5
:10052300CB199CD3C633C6CA33CACB33CB3350C9DA
:10053300DDE7D5F0E1D3E4C636C608C636C608C63D
:1005430036C608C636C61818188031C3CA97CA09F2
:10055300CB97CB199CB34097C633C6CA33CACB33A8
:10056300CB33DD34D5F02EC6A2E0C640C8CA27CAB5
:1005730009CB37194A70BECB3CB480B90808E633BF
:1005830008E633601F181818D0E0FAD0E0FBD0E07B
:10059300FCD0E0FD22187D08CA27CA09CB37CB1946
:1005A3003CD3808013F618E4B67F11F618B6FF0E1D
:1005B300F618C60470D20808768080CAF618F618B2
:1005C300F680C500121302604F1213116012E75434
:1005D3008066F61211DE701112139F703B09090930
:1005E300F4F618F618F618F6221211F27015121313
:1005F300A808080860EAE6447FF618768018E4F64F
:1006030018F6221213A8601612139F7012E4F6084C
:10061300F608F608E65480F609090918181822EABC
:10062300C0E0EBC0E0ECC0E0EDC0E0E687F0A4FB87
:10063300ACF008E687F0A42CFCE435F0FA1809E6E0
:1006430087F0A42C4B60027401CA35F0FCE433FB41
:1006530009E687F0D2F7A42CCB35F0FC1908E6871E
:10066300F0A42BCC35F0FBE433FD0819E687F0D278
:10067300E7A42C4ACB35F0CD3400FC09E687F0D251
:10068300E7A42DCC35F0FDE433FA0918E687F0D260
:10069300F7A42CCD35F0CA3400FC08E687F0D2E786
:1006A300D2F7A42ACC35F07A7E20E70B0ACB33CBE2
:1006B300CD33CDCC33CC33CB3350147004ED30E099
:1006C3000ED2F1E4CD3DCDCC3CCC3B5005DA05C296
:1006D300F1EB547FC63308E63392F0FBE73309E7C7
:1006E30033C39A502D2B70190C0D4C4D70151806F1
:1006F300E608C333700D20F10AA2F013F6E4188064
:100703000B4024E4F630F002768018F618F618F65B
:100713008024D33B14501074FFA2F013F618768094
:10072300E418F618F6800FA2F013F618E63303F672
:1007330018ECF618EDF6D0E0FDD0E0FCD0E0FBD0ED
:10074300E0FA22C0E074F1120B2FA2AFE433F509F3
:10075300D2AF85A708AFA1EF5508FE74105E6006FF
:100763001215B875A1EF74085E60081215BE75A165
:10077300F78024EFA2E092F0E508A2E082F05017A0
:10078300906198E0F8900940E0C398A2D265D03315
:100793005002E8F075A1FEE509A2E092AF7F0202E4
:1007A3000B8EC0E074F2120B2FA2AFE433FED2AF74
:1007B3009061A4E0F8759B00E591585408600875B2
:1007C30091F712160C8023E5915854106008759127
:1007D300EF1216128014E591A2E092F0E8A2E082F3
:1007E300F05007E0C2E0F012175C9061A3E0F8E577
:1007F300E9585404600E12173275E9FB906193E0D7
:10080300A2E640F2EEA2E092AF7F01020B8EC0E0BF
:1008130074F2120B2FA2AFE433FED2AF9061A5E0C6
:10082300F8E5BF585404600675BFFB12177480D4F3
:10083300C3E498F8E499F91208748026C3E49AFA99
:10084300E49BFBE920E7E9120874E498F8E499F9DA
:1008530022C3E498F8E499F9120874E498F8E49947
:10086300F9C3E49AFAE49BFB22EB20E7CFE920E704
:10087300E0B90010BB0008E88AF084F8AAF022E48B
:10088300FBC8FA22EB70227B10C833C8C933C933C3
:100893005007C39AC3DBF280069A50012ADBEAC8E9
:1008A30033F4C8C933F4C9FA2275F008E4C833C86D
:1008B300C933C933C99AC99B5004C92AC93BD5F066
:1008C300ECFBC833F4C8E4C9FA2212090D20F01472
:1008D30030E72B74FFFCFBFA747F8022E4FCFBFA05
:1008E3007480801AB48008BC00F2BB00EF800F5004
:1008F300EBF9E4C39AFAE49BFBE49CFCE499C6CCD1
:1009030018C6CB18C6CA18C6F922E4C9C608CAC68F
:1009130008CBC6D3330308CCC63392F0C3947F40CD
:100923002E94184019C9B90704CACBCC225025C349
:1009330009CA33CACB33CBCC33CC33D9F422F460DA
:100943000DC9CCC313CB13CBCA13CAD9F6CC22E43B
:10095300FCFBFA2214FCFBFA22080808EAC0E0EBCD
:10096300C0E086F0E7A4FA180986F0E7A42AFA188B
:100973000986F0E7A42AFA180986F0E7A42AFA19E7
:1009830086F0E7A4FBE5F02AFA190886F0E7A42B22
:10099300FBE5F03AFA190886F0E7A42BFBE5F03AF9
:1009A300FA18180986F0E7A4C5F02BFBE43AFA1904
:1009B30008E7C5F0C6A426F6E5F03BFBE43AFA18CF
:1009C30086F0E7A4F6E5F00826F6E43B08F6E43AF9
:1009D30008F6D0E0FBD0E0FA22080808E630E71179
:1009E3001211A21209F4080808C64480C618181880
:1009F30022181818E9799EC608CAC608CBC608CCBF
:100A0300C6C370207996CACBCC7019798ECBCC70C3
:100A1300137986CC700EF9802ACA33CACB33CBCC78
:100A230033CC331930E7F2CCCBCA3350147004EA19
:100A330030E00DE4CA3ACACB3BCBCC3CCC500209E4
:100A4300C3E913C6CC182313C6CB18C6CA18C6F9F4
:100A530022E4CFC0E0E4CEC0E0E4CDC0E0E4CCC00B
:100A6300E075F020E626F608E633F608E633F608E6
:100A7300E633F6181818EC33FCED33FDEE33FEEFD6
:100A830033FFC3EC9709ED9709EE9709EF9719190F
:100A930019400FFFEC97FC09ED97FD09EE97FE193E
:100AA3001906D5F0BFECF709EDF709EEF709EFF7F3
:100AB300191919D0E0FCD0E0FDD0E0FED0E0FF2210
:100AC3002518C582C0E0E51934FFC583C0E0E518E9
:100AD300C3958224F810AF0885831985821880088E
:100AE300858319858218D2AFCEF0A3E520F0A378D1
:100AF30008E608F0A3DEFAEFF0A3E58124FAF8E6AE
:100B030008F0A3E608F0A3E608F0A30808E608F057
:100B1300A3E608F0A315811581D0E0FED0E0F81517
:100B23008115811581E8C0E0EEC0E022C0D0251810
:100B3300C582C0E0E51934FFC583C0E0E518C3955D
:100B43008224F310AF088583198582188008858372
:100B530019858218D2AFC8F0A3E9F0A3EAF0A3EB9A
:100B6300F0A37908E709F0A3D8FAECF0A3EDF0A31A
:100B7300EEF0A3EFF0A3D0E0F0A3D0E0F0A3D0E039
:100B8300F0A3E520F0A3E5F0F0A3228519838518EF
:100B930082E0C0E0A3E0F9A3E0FAA3E0FBA37808B6
:100BA300E0F608A3DFFAE0FCA3E0FDA3E0FEA3E088
:100BB300FFA3E0C0E0A3E0C0E0A3E0F5D0A3E0F52D
:100BC30020A3E0A3F5F010AF088583198582188070
:100BD30008858319858218D2AFD082D083D0E0F8FC
:100BE300D0E03212138AB90003020C25E490040109
:100BF30078A379168002F0A3D8FCD9FA7AA37B19DB
:100C0300900086781C79028015E493A3AD82AE83AD
:100C13008A828B83F0A3AA82AB838D828E83D8E9E9
:100C2300D9E77582547583DB740412104B7582986F
:100C3300758329740012104B1075F0108E1A8F1BD8
:100C430085821F85831E851882851983E0CEA3E0E4
:100C5300CF851F82851E83EBC9EAC8EDCBECCAC3DF
:100C6300E833C8E933C9EA33CAEB33CBC3EA9EF5A9
:100C73001DEB9FF51CB35004AB1CAA1DEC33CCED4C
:100C830033CDD5F0DAAE1AAF1B22121302601C1259
:100C9300131160171213A8700712139F7001D32248
:100CA300C0D012139F7006D0D0B322C32233D0D04A
:100CB300501430E0F6C3E7960809E7960809E7966B
:100CC3000809E796B32220E0D5E6970809E69708D6
:100CD30009E6970809E697B322121302601B121361
:100CE3001160161213A8700712139F600CB322C071
:100CF300D012139F7005D0D022C32233D0D050130B
:100D030030E0EBC3E7960809E7960809E796080978
:100D1300E7962220E0E4E6970809E6970809E697B4
:100D23000809E69722D083D082ECC0E0EDC0E0E46E
:100D330093A3FCE493A3FDED4C600D120E44EC244D
:100D4300FFFCED34FFFD80EFE493A3FCE493A3FDEC
:100D5300ED4C600D120F0DEC24FFFCED34FFFD8014
:100D6300EFD0E0FDD0E0FCE493A3C0E0E493C0E067
:100D730022851983851882E0A3FEE0A3F520780875
:100D8300E0A3F608DFFAE0A3FFE0A3C0E0E0A3C01E
:100D9300E0E0A3C0E0E0A3C0E0E0A3C0E010AF0840
:100DA3008582188583198008858218858319D2AFB7
:100DB300D083D082021051D083D082E9C0E0E49383
:100DC300A3C386F0C5F095F0F908E493A386F0C5B4
:100DD300F095F0700BE493A3C3994005E9048002F6
:100DE300A3E475F002A42582F582E5F03583F5834B
:100DF300D0E0F9E493A3C0E0E493C0E022C0E07440
:100E0300F2120B2FA2AFE433FED2AFE589A2E15079
:100E130003121498758900C2C5EEA2E092AF7F0158
:100E2300020B8EC0E074F2120B2FA2AFE433FED29A
:100E3300AFE58BA2E05003121498758B00C2E880D3
:100E4300D8C0E0C3E49396087401939618400FE466
:100E53009366700808740193661870007019A3A351
:100E6300C3E49396087401939618A3A3400DD0E0AE
:100E7300D0E0D0E0020D64A3A3A3A3A3A3D0E022F8
:100E83007404800474028000CCC0E0EDC0E0E51877
:100E9300C39CCCAD1950011D10AF068C188D198061
:100EA300068C188D19D2AF120FCDD0E0FDD0E0FC27
:100EB3002274028000CCC0E0EDC0E0E518C39CCCF6
:100EC300AD1950011D10AF068C188D1980068C18B2
:100ED3008D19D2AF120FABD0E0FDD0E0FC2212137C
:100EE30002602512131160201213A8700302139FCE
:100EF300080808E76670101819E766700A1819E7FA
:100F03006670041819E76622F422C0E0C0F088F086
:100F1300E4936670080874019366187000A8F0A340
:100F2300A3700BD0F0D0E0D0E0D0E0020D64A3A317
:100F3300D0F0D0E022D083D082CCC0E0E493A36091
:100F430006120FEE1470FAE493A36006121137141D
:100F530070FAD0E0FCE493A3C0E0E493C0E022C0C5
:100F630008C3E096F50808A3E096420808A3E096B4
:100F7300420808A3E0964208A2D265D033E5087080
:100F830001D3D00822C0E074F2120B2FA2AFE433D6
:100F9300FED2AFC2C0E5D1A2E45003121534EEA2D3
:100FA300E092AF7F01020B8ECAC0E0E493A3C58237
:100FB300CCC582C583CDC583F0A3C582CCC582C50C
:100FC30083CDC583DAE5D0E0CA22CAC0E0E0A3C579
:100FD30082CCC582C583CDC583F0A3C582CCC5822F
:100FE300C583CDC583DAE6D0E0CA22C0E0E493A38B
:100FF300D39C5010E493A3C39C400AD0E0D0E0D02C
:10100300E0020F55A3A3A3D0E02270090808082229
:101013006016181818C6C333C608C633C608C633C5
:10102300C608C633C6D5E0EA22C008C3E096F50871
:1010330008A3E096420808A3E096420808A3E096B6
:1010430045087001D3D00822C09FF59FE473D09F59
:1010530022D083D082C09FE493C0E0740193C0E0A8
:10106300740293F59F222518F58210AF08F51840F6
:101073000C15198008F51840021519D2AF8519838C
:10108300227404800A74038006740280027401C00F
:10109300E0F404121069D0E012134D2200C0D025F1
:1010A3001810AF08F518500C05198008F5185002F0
:1010B3000519D2AFD0D022C0E0C0D0E8C0E0A8A8C4
:1010C300D2AFC2C7E8A2E792AFD0E0F8D0D0D0E069
:1010D30032BB0102E722C082C08389828A83BB00BC
:1010E30003E08002E493D083D082226016080808CC
:1010F300C6C313C618C613C618C613C618C613C666
:10110300D5E0EA22C3E0C696F608A3E0C696F60841
:10111300A3E0C696F608A3E0C696F6222518F8E4DF
:101123003519F9222518FAE43519FB222518FCE4B0
:101133003519FD22C0E0E493A36C7009D0E0D0E040
:10114300D0E0020F55A3A3D0E022251810AF08F575
:1011530018400C15198008F51840021519D2AF2252
:10116300E76670100809E766700A0809E766700405
:101173000809E76622C3E09608A3E09608A3E09671
:1011830008A3E096A2D265D03322E066701008A3CC
:10119300E066700A08A3E066700408A3E0662218FC
:1011A3001818E4C396F608E496F608E496F608E4FD
:1011B30096F622C3E096F008A3E096F008A3E09623
:1011C300F008A3E096F022C3E697F60809E697F63F
:1011D3000809E697F60809E697F622181818E608AC
:1011E30046087009E626087005E633F4220822193A
:1011F3001919E70947097009E727097005E733F467
:10120300220922C3E4939608740193960874029307
:1012130096087403939622E627F60809E637F6083C
:1012230009E637F60809E637F622700422600D183E
:10123300C6C333C608C633C6D5E0F41822E657F64C
:101243000809E657F60809E657F60809E657F622AD
:10125300E026F608A3E036F608A3E036F608A3E096
:1012630036F622E026F008A3E036F008A3E036F0D5
:1012730008A3E036F022E056F008A3E056F008A3F6
:10128300E056F008A3E056F022E647F60809E647E1
:10129300F60809E647F60809E647F622E056F60897
:1012A300A3E056F608A3E056F608A3E056F622603C
:1012B3000D08C6A2E713C618C613C6D5E0F322C6A7
:1012C300F4C608C6F4C608C6F4C608C6F4C622C3E4
:1012D300E09608A3E09608A3E09608A3E09622C34D
:1012E300E7960809E7960809E7960809E79622753D
:1012F300D00075813F75180175190400020BE6E6ED
:10130300084608C3134608336002E633F422E709AC
:101313004709C3134709336002E733F422600C081B
:10132300C6C313C618C613C6D5E0F422E6F008A355
:10133300E6F008A3E6F008A3E6F022E0F608A3E04F
:10134300F608A3E0F608A3E0F622CAC0E0E6F0A39D
:1013530008DAFAD0E0FA22E0FAA3E0FBA3E0FCA368
:10136300E0FD22EAF0A3EBF0A3ECF0A3EDF022E022
:10137300F8A3E0F9A3E0FAA3E0FB22E8F0A3E9F085
:10138300A3EAF0A3EBF022E5C754F84401F5C779CB
:1013930001222518F582E43519F58322E727194739
:1013A3001947194722E62618461846184622C2AF9F
:1013B30075D69F02000022121054E78304121054C2
:1013C300338404121054C384041210549C850412F1
:1013D3001054ED8504121054528604121054C5861D
:1013E3000412105409870412105461870412105414
:1013F300838704121054138804121054A48804120F
:101403001054F088041210541C89041210545D897E
:1014130004121054FE8A04121054E08B0412105468
:10142300BC8C0412105407EB0412105418EB041272
:101433001054B6EB04121054C1EB04121054DBEB3E
:1014430004121054EAFF03121054EBFF021210545B
:10145300EAEB04121054FAEB0412105415EC0412C4
:1014630010547DEC0412105402E90412105486E95E
:1014730004121054EEE904121054ACE30412105495
:10148300CEE30412105434E40412105453E404124F
:10149300105498E404121054F1E40412105436C8A2
:1014A300041210544BC80412105461C9041210548E
:1014B30099C904121054B3C90412105440CA041237
:1014C3001054B4CA04121054CECA04121054E5CAFC
:1014D30004121054F8CA0412105410CB04121054FE
:1014E30025CB0412105446CB0412105497CB04128C
:1014F3001054CCCB04121054DACB0412105453CC36
:101503000412105428CD04121054FACE04121054AD
:10151300B7EE0412105447BB04121054B3BB0412A9
:1015230010546BBC0412105458BD04121054CDBE99
:101533000412105434BF0412105488BF0412105400
:1015430091BF04121054A1BF04121054B7BF041268
:101553001054C7FA01121054F3FA011210548AFD01
:1015630001121054CAFD0112105406FE0112105448
:101573001AFE0112105433FE0112105424FF0112FB
:101583001054D6FF01121054EAFF0112105430E533
:101593000412105454E5041210546DE5041210544F
:1015A300ABE504121054DBE50412105408E60412F0
:1015B30010546EE60412105471E6041210547BE6C4
:1015C3000412105488E604121054ADD804121054B7
:1015D300CDD8041210540CD9041210542AD9041271
:1015E300105445D904121054ABD904121054B7D96E
:1015F3000412105414DA0412105423DA041210548F
:1016030047DA0412105408DB0412105415DB0412D9
:10161300105426DB041210542CEE0412105444EE22
:101623000412105470EE04121054EFB60412105446
:1016330049B80412105457B8041210546AB804126B
:1016430010547FB80412105494B804121054A7B85D
:101653000412105423B90412105488B904121054FC
:101663001EBA04121054F7BA0412105407BB041222
:10167300105416BB041210544EFF0312105472FF81
:10168300031210549AFF03121054C2FF0312105492
:10169300EEDD0412105415DE0412105433DE04126E
:1016A3001054A2DE04121054DAD504121054F3D5E8
:1016B30004121054FFD50412105413D604121054FC
:1016C30031D6041210543BD60412105445D60412DA
:1016D300105458D604121054DED60412105453D7A3
:1016E3000412105482D704121054D0D70412105489
:1016F3001FD8041210543AD80412105444D80412B8
:10170300105455D80412105498D80412105491ED63
:1017130004121054BFA304121054EBA30412105468
:1017230008A4041210541BA40412105436A4041267
:10173300105490A404121054BEA404121054CEA842
:10174300041210542CAA041210545EAA041210544A
:10175300C1AA041210542DAC0412105455AC041237
:1017630010546AAC041210547AAC04121054BAAC7C
:1017730004121054FCAC041210540CAD0412105497
:10178300D2E704121054ECE70412105414E80412C4
:1017930010542DE80412105451E8041210546FE849
:1017A3000412105486E804121054B4E804121054BE
:1017B300CFE80412105473EE041210545FCF0412D6
:1017C30010546FCF0412105474D004121054A6D0C6
:1017D30004121054D6D004121054F9D00412105429
:1017E30010D1041210544AD104121054AFD1041270
:1017F3001054F1D10412105438D20412105465D28B
:101803000412105490D20412105443E004121054E2
:1018130055E00412105469E104121054F6E1041265
:10182300105424E2041210545AE20412105472E2C7
:1018330004121054B4E204121054C4E204121054FB
:1018430008E304121054A2E304121054B0F5031277
:101853001054BAF503121054F4F5031210545DF644
:10186300031210547CF6031210541EF70312105483
:10187300A6F903121054AFF90312105400FA03121D
:10188300105429FA0312105436FA03121054A7FA0B
:101893000312105435FB0312105483FB031210542C
:1018A300B9FB031210541AFC0312105443FC031225
:1018B3001054BAFC0312105416FD0312105453FDB6
:1018C300031210548AFD031210549CFD031210548A
:1018D300AEFD03121054CDFD03121054D6FD0312B6
:1018E300105491FE03121054DDFE031210541BFF1B
:1018F3000312105492E604121054ADFD0212105458
:10190300E3FD021210542BFE0212105484FF021244
:10191300105488D103121054B9D203121054F5D2C3
:1019230003121054AFD403121054D9D40312105419
:1019330052D70312105492D70312105426D903120C
:101943001054C5D9031210541DDA03121054B0DA1F
:1019530003121054EADA031210542CDB031210544E
:101963009FDC031210541FDE031210545CE00312B9
:1019730010548AE003121054B6E003121054BFE06F
:10198300031210541CE103121054ACE1031210545F
:10199300E8E4031210546AE503121054E87F0012BE
:1019A3001054DCED0412105431C40412105447C413
:1019B30004121054EBC4041210542AC50412105418
:1019C30047C50412105478C504121054C5C5041237
:1019D3001054F9C50412105434C60412105429C803
:1019E3000412105407EA0412105466EA0412105445
:1019F300A4EA04121054E5EA0412105400800212FF
:101A030010540C80021210546E8002121054AA80DB
:101A130002121054628102121054F7810212105400
:101A2300418202121054BC820212105473840212B7
:101A330010543986021210546B8702121054EA882C
:101A430002121054878902121054D38A02121054BE
:101A5300D38B02121054458D02121054DC910212E2
:101A63001054C692021210544593021210546A93F2
:101A7300021210548F93021210542A94021210541B
:101A8300489402121054669402121054D79402120E
:101A93001054F694021210542395021210542496F3
:101AA300021210540D9702121054A49802121054EB
:101AB300C598021210546B9902121054B299021273
:101AC3001054249A02121054899A02121054E69A5E
:101AD30002121054859B02121054FB9B02121054E5
:101AE300369C02121054A39C02121054069E02123A
:101AF3001054969F021210543DA00212105495A246
:101B030002121054DFA202121054F4A20212105453
:101B130045A302121054B6A302121054E6A30212F4
:101B2300105457A402121054F6A40212105400A722
:101B33000212105483A90212105498AA02121054CC
:101B430099AE021210545FAF021210547CB002120D
:101B5300105430B20212105449BC0312105478BC12
:101B630003121054F0BC03121054FFBD031210549F
:101B73005BBE03121054D2BF03121054EEBF031204
:101B8300105440C0031210547EC00312105491C06D
:101B930003121054E9C00312105401C1031210546C
:101BA300C3C10312105431C20312105468C203128A
:101BB3001054A0C20312105428C40312105407C5B2
:101BC3000312105455C60312105438C7031210548D
:101BD300C4C70312105404C80312105423C80312B9
:101BE30010546EC8031210548EC80312105427C920
:101BF30003121054B6C90312105411CA031210541D
:101C030051CA03121054CECC03121054F2CD031256
:101C1300105438CE031210542DCF0312105455CF45
:101C23000312105458CF0312105462CF03121054EE
:101C33007ECF0312105406D0031210543FD0031268
:101C430010546BD00312105492D003121054B6D018
:101C53000312105427D1031210543AD10312105413
:101C630069D1031210540AED0412105416ED041234
:101C7300105454ED04121054E7FF03121054B9A585
:101C830003121054DCA50312105436A70312105488
:101C93007FA703121054DDA70312105443A80312A5
:101CA300105446A80312105497A80312105411A9F4
:101CB3000312105495A90312105498A90312105437
:101CC30020AA0312105463AA03121054B6AE0312CF
:101CD300105467B003121054ADB00312105425B45E
:101CE3000312105453B503121054CFB603121054F9
:101CF30055B70312105446B803121054C8BA03124E
:101D03001054686C00121054086D00121054746D56
:101D1300001210548F6D00121054196E00121054DB
:101D2300726E00121054BD6E00121054246F001214
:101D33001054A57000121054BD710012105440725B
:101D430000121054487400121054EC740012105412
:101D53008B750012105479760012105457780012C4
:101D63001054F879001210548B7A00121054977B98
:101D7300001210548CDF01121054EFDF01121054C3
:101D830037E00112105475E001121054D0E0011233
:101D930010542DE10112105468E101121054EAE1CC
:101DA3000112105444E201121054B8E3011210540A
:101DB30042E40112105495E40112105488B1041244
:101DC3001054C9E40112105423E501121054A9E779
:101DD30001121054C8E701121054B3E80112105451
:101DE300EDE9011210546CEA01121054A3EA011236
:101DF300105412EB01121054D3EB01121054ACED3A
:101E030001121054ADEE011210541EF001121054C1
:101E13001EF20112105499F40112105473F60112B8
:101E2300105434F701121054ACF701121054C3F7D5
:101E330001121054BDF801121054B5F901121054D7
:101E430024FA011210546283041210543FD4041272
:101E53001054FED40412105466D504121054E77CB7
:101E630000121054027D00121054467D00121054CB
:101E73006C7D00121054937D00121054AB7D001240
:101E830010544D7E00121054627E00121054847F51
:101E9300001210548D7F00121054967F00121054BC
:101EA3009F7F00121054C1BF04121054C3C3041205
:101EB3001054C8C304121054CAC3041210547BDC58
:101EC30004121054C7E503121054D6EA0312105437
:101ED30026EF04121054EFEE0412105452EF0412C2
:101EE30010547BEF0412105487EC04121054B1EC1D
:101EF3000412105400800312105433800312105440
:101F03009F80031210543A8103121054D781031295
:101F130010541C82031210543E8203121054578231
:101F2300031210547D82031210549F820312105423
:101F3300DD820312105421830312105443830312CE
:101F43001054A583031210546C8403121054238578
:101F53000312105495850312105460860312105413
:101F6300B3860312105419870312105453870312B4
:101F73001054A587031210541388031210547E883B
:101F8300031210548188031210540289031210544F
:101F9300998903121054198A03121054388A0312B0
:101FA30010549C8B03121054A98B03121054B58C3C
:101FB30003121054C28C03121054CB8C031210540E
:101FC300A38E03121054BD8F0312105436900312C4
:101FD3001054A89003121054CA90031210545E9127
:101FE300031210543293031210540997031210541E
:101FF3001D97031210542D97031210543797031291
:1020030010544097031210544997031210545397D6
:1020130003121054809703121054A99703121054FB
:10202300B49703121054D89703121054FC97031259
:102033001054669803121054AC9803121054C998A4
:10204300031210544699031210547D99031210542D
:10205300BC9903121054099A031210548F9A031255
:1020630010545D9C03121054E09C03121054C49D41
:10207300031210542BA00312105484A00312105403
:10208300CEA00312105429A2031210545EA203120D
:102093001054B0A20312105465A30312105414A4D5
:1020A3000312105451A403121054E6A40312105443
:1020B30052A5031210548E8601121054C0860112C9
:1020C3001054EE8601121054C48801121054A489CE
:1020D30001121054FC8901121054378B0112105451
:1020E300838B01121054AC8E011210549F91011274
:1020F3001054EF92011210548593011210549193CE
:1021030001121054C3930112105446950112105436
:102113005496011210547E9601121054E596011242
:1021230010543E9701121054A49701121054BB99F6
:10213300011210544A9B01121054149C01121054A2
:102143005A9D01121054AA9F011210547AA201122F
:10215300105487A2011210540EA301121054A2A30B
:1021630001121054E5A3011210546BA40112105470
:1021730088A401121054B8A401121054EDA4011242
:102183001054BDA50112105466A601121054ECA8F8
:10219300011210540CAA01121054F7AA0112105480
:1021A30079AB01121054B0AF01121054EDAF01120C
:1021B300105445B00112105478B001121054E2B01B
:1021C3000112105418B101121054A3B1011210548A
:1021D300FBB101121054D2B2011210548BB301128D
:1021E300105426B4011210542EB7011210544AB8D9
:1021F30001121054EDBB01121054E1BC0112105432
:10220300E4BC0112105413BD0112105419BF011282
:102213001054F2BF0112105435C0011210548BC177
:1022230001121054CAC1011210545CC2011210549D
:1022330090C20112105455C3011210546DC50112FE
:102243001054DEC5011210541EC601121054ACC640
:1022530001121054D4C70112105496C8011210541D
:102263009DCA01121054B5CA01121054C9CA0112F1
:10227300105401CB011210542FCB01121054AECCC9
:1022830001121054D3CD0112105437CE0112105441
:10229300E9CE0112105419CF01121054E0CF0112EC
:1022A300105478D0011210549ED201121054D3D27C
:1022B3000112105436D30112105465D40112105474
:1022C3000DD5011210543ED50112105456D50112EA
:1022D3001054E5D50112105499D80112105471DA33
:1022E300011210548DDA01121054A9DA011210549C
:1022F30077DB011210546ADF01121054712F0012A0
:102303001054A32F00121054923300121054DE33D2
:1023130000121054243400121054C6340012105406
:10232300223500121054673500121054AE360012D5
:102333001054C23700121054B13B00121054353CF4
:1023430000121054423D001210549E3D00121054CE
:102353008E3F001210540340001210540D4000121F
:1023630010541A40001210544540001210542C41CE
:1023730000121054D641001210545442001210544B
:102383007442001210549D4200121054BF420012B6
:1023930010541F4500121054E545001210542A46EC
:1023A30000121054A746001210545847001210543C
:1023B3008A4700121054D047001210540C480012E0
:1023C30010545C4800121054B048001210540649CF
:1023D30000121054524900121054BF4900121054F5
:1023E3003A4A00121054054C00121054054D0012C5
:1023F30010542A4E001210546951001210547C5488
:10240300001210543955001210547D550012105407
:102413002D57001210544157001210544B570012FD
:1024230010545557001210546157001210547D5721
:1024330000121054285800121054675800121054F8
:102443007158001210547B5800121054EB580012AC
:1024530010543659001210544B5A00121054A75AF4
:1024630000121054285B00121054E75B0012105442
:10247300F05C00121054245E00121054125F00121C
:1024830010542A5F00121054855F00121054A35F8A
:1024930000121054EB5F001210541260001210541B
:1024A300AD600012105473610012105405620012E3
:1024B30010547F6200121054996300121054466442
:1024C300001210546E6500121054BE6500121054B1
:1024D300226600121054846600121054B266001271
:1024E3001054D666001210540B67001210543C6748
:1024F300001210546F67001210548F6700121054AB
:10250300F76700121054EB6800121054466900126A
:1025130010546F6900121054F769001210547A6A4C
:1025230000121054A56A001210548A6B0012105442
:10253300968D04121054CE8D04121054EF8D041294
:102543001054318E04121054938E041210549D8E25
:1025530004121054AD8E04121054E88E0412105459
:10256300C89204121054B594041210549B9604128A
:102573001054329704121054D4970412105467B5B0
:1025830002121054E5B50212105441B6021210544F
:102593008CB602121054A7B602121054D2B602120D
:1025A3001054EFB602121054FBB60212105492B834
:1025B30002121054ABB80212105430B90212105464
:1025C30043B90212105462B90212105406BA02122D
:1025D300105487BB021210543ABD02121054D0BDDE
:1025E30002121054D3BD0212105443BE02121054EF
:1025F30061BE02121054F8BE0212105440BF021200
:10260300105443BF0212105409C00212105476C072
:10261300021210549CC00212105427C1021210540B
:1026230045C1021210548BC1021210543FC2021250
:10263300105489C202121054B8C20212105415C3A6
:10264300021210544AC30212105476C302121054D9
:1026530084C302121054D1C30212105441C4021293
:1026630010548AC402121054D6C40212105402C564
:10267300021210540DC5021210542BC5021210542D
:1026830016C60212105420C6021210545BC6021260
:1026930010546BC60212105474C602121054C8C6EA
:1026A30002121054DCC6021210540BC8021210544A
:1026B30020C802121054AEC802121054F3C80212FA
:1026C30010547FC9021210548AC902121054CCCA82
:1026D30002121054E7CA0212105433CB02121054E0
:1026E300A2CB02121054DBCB02121054F5CB021210
:1026F300105437CC0212105407CF02121054B4CF27
:102703000212105421D00212105461D2021210543A
:1027130079D2021210547CD20212105488D20212BF
:1027230010549CD202121054A4D202121054D7D2C5
:1027330002121054D9D30212105460D4021210544E
:10274300D0D40212105452D50212105413D60212CE
:10275300105432D602121054D3D60212105430D76A
:102763000212105433D702121054A7D70212105476
:10277300F6D802121054FCD90212105487DA02124E
:102783001054A2DB021210546ADC021210549BDCB8
:1027930002121054BEDC02121054C7DC0212105491
:1027A300F6DC0212105486DD021210543CDE0212D3
:1027B3001054B1DE0212105458DF02121054CDDF50
:1027C3000212105404E00212105442E00212105498
:1027D300A3B00412105497AE04121054A5AD041202
:1027E300105446AD0412105418F7021210540EF789
:1027F30002121054A1F602121054D2F40212105411
:1028030090F40212105420F4021210545DF30212D9
:1028130010541D830412105401830412105449F000
:10282300021210540CEE02121054DD8004121054E4
:10283300AF8004121054D9ED0212105480ED02122D
:10284300105413ED02121054D2EC021210540BEC7C
:1028530002121054A5EB0212105444EB021210544E
:10286300E4EA02121054BBE9021210544FE90212B7
:102873001054A7E802121054A2E80212105496E86A
:1028830002121054C9E402121054A3E402121054A9
:1028930041E402121054E2E302121054A3E30212C1
:1028A300105490E30212105485E30212105454E3BF
:1028B3000212105470E1021210547C80041210545E
:1028C30000800412105467B60412105433B6041275
:1028D3001054DCB5041210544AB404121054A4B3B7
:1028E30004121054E3E0021210549FE00212105439
:1028F30078E00212105474A30412105439B3041272
:1029030010541FA304121054F2A204121054BFA2B5
:102913000412105497A20412105425B30412105435
:1029230038A204121054E8D20412105418A204124C
:102933001054E3A104121054A79E041210547C9C5B
:10294300041210546C9A04121054E999041210548E
:102953009D9904121054519904121054AB98041207
:10296300105469FD02121054E6FB02121054A8FB26
:10297300021210544EF902121054FCF802121054B1
:1029830082B204121054F6F7021210542CF70212FA
:102993001054AFE40100000080FBE4738F000100DA
:1029A300511A870001004F1A35000400181A250038
:1029B30002001C1A260002001E1A27000200201A19
:1029C300280001002A1A290001002B1A84000400A0
:1029D3008F1786000100F1192A0001002C1A2B0021
:1029E30001002D1A2C000100311A2D0008009B173D
:1029F3002E000100321A2F000100331A30000100AB
:102A0300341A31000100351A32000100A3173300D4
:102A13000100A41734000100361A36000100A5177F
:102A230038000100371A39000100301A8300020010
:102A33004D1A63000100B117640001002E1A6500EE
:102A430001002F1A6D000100B217710008009317DF
:102A5300660001004C1A430001003D1A44000200C5
:102A63003E1A45000100401A46000200411A470081
:102A73000800A91748000100431A4B000100441A3B
:102A830004000100501AA1000100541A370001008C
:102A9300531A88000100521A3C000100A6173D009A
:102AA3000100381A49000200451A67000100B317F4
:102AB3004D000200471A4E000100491A4F00020060
:102AC3004A1A3E0001003C1A51000100A7175200A8
:102AD30001003A1A530001003B1A54000100A817E1
:102AE3000000000000000001363601010001020170
:102AF30000010301000104010606050200000701AD
:102B030000340801000F090401010D0100FF0E0844
:102B1300000017020000190100FF1A0100011B0148
:102B230000FE1C0100081D0200001F01000120011E
:102B33000001210200002301000F240200002601EE
:102B4300000127010008280200FF2A0100072B01CA
:102B530002402C0100002D0100012E0100012F0174
:102B630000FF30010B1D310800003A0100083B0152
:102B7300000F3C0100013D0100FF3E040000420440
:102B83000000460400004A0400004E040000520402
:102B93000000560400005A040000010371030103FE
:102BA30001030103010301032203020301031003D1
:102BB30000030003000300030003000300034203B8
:102BC3000003240306030003000304031203250385
:102BD3002303250323030403040300030003000367
:102BE30044030003000323030003650321003503AB
:102BF300810300030503000300030003000325030F
:102C03002303000005004201448400000400420144
:102C1300828406000020100300000600012010013A
:102C2300000006000220100100000C000020390102
:102C330000000005002023030000000300202301FF
:102C4300C319000301202301C71900030220230134
:102C5300CB190003032023018E0400030420230166
:102C6300CF19000305202301D31903027102300198
:102C730060021102700201020202020280021002CB
:102C830061023A004100630273027202620243026C
:102C930000021302380000020002040212020002C2
:102CA30000020002000204020402370037003C0263
:102CB30044020002390000020002650200023502EC
:102CC30081020002050282028302000201017101F6
:102CD3000101010111010101310101010101800122
:102CE300100161013B001400630173017201620171
:102CF30043010001130106013D01350004011201E6
:102D0300000100010001000104010401330133014A
:102D13003C0144013201360000010001650100015C
:102D230035008101000105018201830100010300D7
:102D33007100300160001100700031022003500463
:102D43008000100061000000140063007300720033
:102D530062004300000013000600000000000400AE
:102D6300120000000000000000000400040037000F
:102D730037003C0244000000000000000000650032
:102D83000000350081000000050000008300000002
:102D930036000100060000000F00000000000000E4
:102DA30000000000000003FFFF00000403FFFF001A
:102DB30000FFFF0FF4010005C4040320000100001D
:102DC3000B000000000000000003010F00000000E2
:102DD30000000000000000000000000000000000F0
:102DE3000000000000000000000000000000E01AE6
:102DF300281BE61A0E1AEC1A2E1BEC1A3A1BF21AAF
:102E03000E1AEC1A2E1BF81A0E1A00000000FE1AF6
:102E13000E1A0000000000000000041B0E1A0A1B1B
:102E2300401B101B0E1A00000000000000000000F1
:102E33000000161B521B1C1B0E1A161B521B1C1BBD
:102E43000E1A0A1B401B221B0E1A00002C1D010028
:102E53002C1D0200A21C02809C1C0300A81C040061
:102E6300AE1C0480B41C0500BA1C0600C61C31004D
:102E7300D81C3300DE1C3400E41CFFFF000007EC09
:102E8300FDFDFDECDCDCCCBCACAC9C9C8C7C7C6C9C
:102E93006C5C5C5C4C4C3C3C2C2C1C1C03EAF5E548
:102EA300D5D5C5B5A595958585757565655555457F
:102EB30045353525251515050A7423023E23054A94
:102EC300230744230C26230D3223FF000000160F93
:102ED30000000B150B020002220F3300000E0F5AE5
:102EE3006967426565416C6C69616E63653039D0B1
:102EF300D1D2D3D4D5D6D7D8D9DADBDCDDDEDF0027
:102F03003C40423A3F3F392F4730303016181920A2
:102F1300231A1C1E30303017181921301B1D1F3087
:102F230000034D4C4651181A2505020001191618C5
:102F33001616182303000C0E020B040B0A070800D5
:102F43000F020402010101010902E803000000BEAF
:102F5300040AE803010003000E0004090303041E2E
:102F6300040C04081E28020C0508150A0DFF74F74B
:102F7300120AC3E9901888F090183DE4F012180A79
:102F83009018A0E4F0A3F0901889F0A3F01224C4E1
:102F93001218109017C1E4F0A3F0121E8E0248D746
:102FA30074F0120AC374D312114D12633354806048
:102FB30066901888E0F912188E8A088B09AF09EA1F
:102FC3004F604C7C0080010CEC75F003A4F8A9F071
:102FD30074BB28F582742E39F583E493F46029E4F5
:102FE30093F88A828B83E06870DDEC75F003A4F8B4
:102FF30074BC28F582742E39F583E493C0E0740120
:1030030093F583D08212299DAA08EFFB12187C1234
:103013006A656480023372851882851983A3E0543C
:1030230020601F1223DA8A088B09AF09EA4F600A6E
:10303300122332AA08EFFB12187C126A656420027D
:103043003372851882851983E0A2E05042901842BA
:10305300E0640F702E900C1C126A70900C1CC3E07D
:1030630094E9A3E09403400A7A007B809016B3129C
:1030730049B97900122308E96009901A1812135A02
:10308300122320851882851983E064010233575483
:1030930020700302335C7A207B00901888E0F912D9
:1030A30019D2EA4B4C4D701A90189C121372E849CE
:1030B3004A4B700E750801750900750A00750B00FF
:1030C300806D750C00750D00750E00750F001219DB
:1030D300DE8A088B098C0A8D0B90189C121372E8F8
:1030E300494A4B603190189C780812102C400E7599
:1030F3000CFF750DFF750EFF750F7F801985080C8A
:1031030085090D8C0E8D0F90189C780C1211077485
:1031130001780C1210EE850C08850D09850E0A85C1
:103123000F0BE5084509450A450B70030232B67CCF
:103133000079047A007B001223B08A0C8B0DAE0C4D
:10314300AF0D0231FA740212139574FFF074031277
:10315300139574FFF0740412139574FF124A2C1222
:1031630061ED740712112F1264A3E96401706A12EE
:10317300337E4480F8A3E0F97428121395E8F0A392
:10318300E9126737E0C0E0742A121395D0E0124ABF
:1031930019540860167428121395A3E044011233DE
:1031A3008BC0E0742C121395D0E0F012637660119B
:1031B300E8240B123B71F87416121395E8F0A3E49C
:1031C300F0908647120E83740612112F740B12119E
:1031D30027121FE4740412109F8E828F83A3A3A36C
:1031E300A3A3A3A3A3A3740612338BF9122392748C
:1031F300051213951264FAEE4F70030232B67C0087
:103203007904EEFAEFFB1223B07405121395EAF07A
:10321300A3EB124743E0F50CA3E0F50DE4F50EF53F
:103223000F7808790C1212E24023EE2404F8E43FED
:10323300F985080C85090D8882F583C3E0950CF0A8
:10324300A3E0950D126B5AE84970A4800C8E828F0F
:1032530083A3A3A3A3E4F0A3F08E828F83A3A3A3EA
:10326300A3A3A3A3A3A3A3E064018E828F83A3A339
:10327300A3A3A3A37020E0540460030231488E8209
:103283008F83A3A3A3A3A3A3A3A3A37406F07AB7D3
:103293001234B10231F2A3A3A3A3E06003023148C5
:1032A3008E828F83A3A3A3A3A3A3A3A3A37401F0D9
:1032B3000231F21223807C0079017A007B00122311
:1032C300B0EA4B60031249B27C0079047A007B00B8
:1032D3001223B0EA4B701380448A828B83A3A3A387
:1032E300A3126512EE98EF99400B8A828B83A3A3F6
:1032F300A3A31264FA7C0079041223B08B0BA90BED
:10330300EA4970D5C3E5089EE5099F500DC3EE95C4
:1033130008FEEF9509FFEE4F700D1249B290189C0D
:10332300123384A3F08024EE2EFEEF338E08F509CA
:10333300E4F50AF50B78081210847A2012355A1234
:10334300109F1219DE90189C121366851882851936
:1033530083E06420FAA3E08016A3E0540460131210
:103363005BCA1228967901123D38126A656404FB20
:1033730080047A007B00742D026352EE126360E0D6
:1033830022E4F0A3F0A3F022124A1EA3A3E022C07A
:1033930082C08374EA12114D7C167D007900AA184D
:1033A300AB1912185E74081213957402F090183159
:1033B300125E061233D27409121395125E1E741331
:1033C300121395E4125A9D121E827416024CE8E8F9
:1033D300F0A3E9F090183B1264E22274F7120AC3D7
:1033E30074DA12114DEAFEEBFFEA4F602DAC18AD13
:1033F300191223F87406121395E0601E7417121342
:1034030095E0FD7401121395E0FCEEFAEFFB7900F1
:103413001222DEE9600479A480027900742602484E
:10342300D474F7120AC3EAFEEBFF8A82F583A3A3DF
:10343300A3A3A3A3E0544060178A828B8312631370
:10344300124BF760067AFF7BFF801512630F800330
:103453009018311261ED74FE6A700374FF6B604162
:1034630012630F12633912248EE98E828F83600BED
:10347300125EFC126B25E4F0A38003126B14F07C44
:103483000E7D238E828F8312426DE9F5087015EE4F
:103493004F60097901EEFAEFFB12238CA908024869
:1034A300D77508CDAA081234B1E960E380EE8E82A5
:1034B3008F83125F00240CF582E438F583E0F91260
:1034C300231A2274F6120AC3E9FEEAFF7A0F7B007D
:1034D300121876EA4B601A8A828B83740CF0EEA37F
:1034E300A3F0EF8A828B83124692125AFB790080F3
:1034F3002BEEF91223B68B09A909EA49601C8A82CB
:103503008B83A3A3A3A3A3A3A3A3A3740612469B82
:10351300E0F9122086EEF912239279100258E6742C
:10352300F4120AC38A088B098C0A8D0B901842E0A7
:10353300640F701EEA4B4C4D601890183DE0640810
:103543006005E06404700B78081210841235581279
:10355300109F0237BD7A017B00901888E0F9121999
:10356300C074042274F4120AC374FC12114DEAFEEF
:10357300EBFF8A82F583A3A3E0F91223B68A088BB3
:1035830009EA4B70030236A08E828F83A3A882A917
:1035930083E0C0E0EA125AF1D0E012450164F16021
:1035A300288E828F83A3E064CD601E8E828F83A3D7
:1035B300E0641A60148E828F83A3E064E9600A8E4C
:1035C300828F83A3E064E17033790012238CE96076
:1035D3002BE5082404F50AE43509F50B85088285F3
:1035E3000983A3A3A3A3A3A31245D71244DF1218ED
:1035F3001C850A82850B8312633980708E828F83C8
:10360300A3E0C0E07402121395D0E0124CF6124E00
:1036130019123F87C0E07403121395D0E0F0E50858
:103623001267E2123C30E0AA18AB197005121FDED4
:1036330080031224767402121395E064E9702D85D9
:103643000882850983123D96750A01780A12109043
:10365300750AE9780A1210901244B3123F54FCA37E
:10366300E0FD8A828B83123F7E12109F850882853C
:103673000983A3A3A3A3A3A3A3A3A3E06402701238
:10368300850882850983A3A3A3A3A3A3A3A3A374E8
:1036930006F08E828F83A3A3E0F912239212238074
:1036A300901A1E123BA274040237BA74F4120AC3AE
:1036B300EAFEEBFF7508008A82F583A3A3A3A3A305
:1036C300E060387508081261E079FF12215EEA4B69
:1036D300601075082C8E828F83A3A3A3A3A3E0D2CB
:1036E300E0F08E828F83A3A3A3A3A3E0540364011A
:1036F30060030237A94308110237A9EA24181250BC
:10370300DF6036EA241A1250DF6003F47013126488
:10371300C27003A3E06960030237A9750822023768
:10372300A9EA241B1237AD241A1250DFFAEE24192A
:103733001250DFF9122074806D8A828B83A3A3A3B6
:10374300A3A3A3A3A3A3123B8D70037508018E82C9
:103753008F831264C67003A3E0697006E508D2E1A3
:10376300F508E50860158E828F83A3A3E07006E554
:1037730008D2E58004E508D2E6F508124BEA6401B5
:103783007006E508D2E0F5088E828F83A3A3E0607C
:1037930015EE241D1253FEF912247CE96401600620
:1037A300E508C2E0F508A9088010F582E43FF58337
:1037B300126B7DEA22740912109F7F04020D747448
:1037C300F0120AC374D712114DEAFEEBFF8A82F599
:1037D30083A3A3A3A3E0600E901A1C12637D60066B
:1037E300901A1C123BA2740312112F8E828F83A393
:1037F300A3A3125CC91261EB1223F8E97003023927
:103803005378017405121395E0C3940240027800C3
:103813007407121395E0C3940240027800740C12EB
:103823001395E064F87003A3E0F470030239537452
:103833000C121395E064F97003A3E0F470030239EA
:1038430053740C121395E064FA7003A3E0F470034D
:10385300023953740C121395E064FB7003A3E0F474
:1038630070030239537406121395E0F990182BE094
:10387300696003023953E8A2E04003023953742715
:10388300121395E06003023953EE24131264D874C3
:1038930022121395125CD3241C1264D874101213D1
:1038A30095125E1E7409121395E0601D741A1213AB
:1038B30095E0FD7404121395E0FC8E828F831261F0
:1038C300EB79011222DEE9703B74031211271223F4
:1038D3002CE9F50C7409121395E0702C901825E06F
:1038E30060267422596422601F7442596442701422
:1038F3007420121395123B87600E742012139512D5
:103903003B8060047ACF804AE9A2E6504D742012CE
:10391300139512540424FD600F14600C24FD6008F9
:1039230024FD600424FE70287420121395123B7941
:10393300700E7420121395125A2AA3E0640D601AB4
:1039430074031211271224A6E96401700D023B6966
:103953007AD37B00121C78023B69EE242DF582E4B6
:103963003FF583123D8D7003A3E069701D75080058
:1039730078081210907808121090EE242F1250DF5E
:10398300F9123B93123F7E12109F7409121395E0B4
:103993007003023A31123B931261ED1224F48A0E42
:1039A3008B0FEA4B7003023AC27404121395E0F8CA
:1039B3008E828F83A3A3E028F8A3E03400F9E824E0
:1039C3000D123B71F88A828B83A3A3A3E068600E78
:1039D300E88A828B83A3A3A312468B1233857904CF
:1039E300E91213951250FEA3E02AF8A3E0340088ED
:1039F30082F583A3AA82AB831218648A088B098C8D
:103A03000A8D0B850E82850F83A3A3A3A3780812C7
:103A1300102C4003023B6990861F780812125385CD
:103A23000E82850F83A3A3126B83A3124E229018D9
:103A33003DE064046008E064096003023B69E50C4F
:103A4300A2E54003023AFCEE242F1250E7F0EE24E5
:103A5300301250DFC0E07401121395D0E0F0EE2471
:103A6300311250DFC0E07402121395D0E0F07414E9
:103A7300121395E064017026740E1213951244DA42
:103A830024131250DF687003A3E0697011740C12E1
:103A93001395123B8D70077414121395E4F0EE2402
:103AA30025F582E43FF583120E83740412112F74FB
:103AB30007121127121FE4740412109F023B69902E
:103AC3001882E064016003023A31742012139512E4
:103AD3003B877009E50CA2E65003023A31741012D9
:103AE3001395E0F47003A3E0F4607BEEFCEFFD7448
:103AF30003121127122338806DA2E6506974201235
:103B03001395125F0C7016741A121395E064027009
:103B130055740312112779001224708049742012FE
:103B23001395123B807014741A121395E064047099
:103B3300357403121127122464802B7420121395F9
:103B4300123B79700C790074031211271224B2808E
:103B5300157420121395125A2AE0640C700874032A
:103B63001211271224BE7429026352E82406F58237
:103B7300E439F583E022126319E064032212631926
:103B8300E0640722125408640622124BFB640222EB
:103B9300EE242BF582E43F126B7BEE124BD022E036
:103BA300F508A3E0AA08FBE4FCFD1223202274F429
:103BB300120AC3EAFEEBFF8C088D099017A3E0609D
:103BC3000F1264C27003A3E0697005122062805370
:103BD30079001261E01220928A828B83E582458309
:103BE300602CA3A3A3A3A3A3E054186021E5082496
:103BF3001C123C2D120E87123C29120E87EE24183C
:103C0300123F651256C512649A12109F80157900EF
:103C13008E828F83A3A3A3125EF21256C51261EDA7
:103C23001220680237BDE5082413F582E43509F54F
:103C3300832274F7120AC374F712114DEAFEEBFFE5
:103C430090183DE06403600DE064016008E06409DE
:103C53006003023D338A828B83A3E06003023D014C
:103C63007C007D007A027B0012181612653F8A825F
:103C73001264DC90182E125E1E7953121E70901877
:103C83003DE06409600990183B1261ED1224EE8552
:103C930018828519837401125A4290183D7404F0F6
:103CA3007401121127794A121E6A740112112F7AB4
:103CB300337B181219F69016B6E0640B7005740680
:103CC300F080057900123D3890182E125EF87A03C1
:103CD3007B00121816901831125EF87A047B0012DA
:103CE3001816901828E0A2E35004D2F08002C2F024
:103CF300125A2F901A1812135A122320802FFC7D68
:103D0300007A037B101218169016B6E0640B70034A
:103D1300740AF09017A7E4F0FA7B4012581F8E82C2
:103D23008F83A3E0F9123D3890183DE4F01223622B
:103D330074090248D490183B1261F1121FF622C095
:103D430082C0839017C112637D701790183DE024E1
:103D5300FB6005146007800A9017C7801F9017C97E
:103D6300801AE8496007123B6E6401700C8A828BEB
:103D730083A3E0F9121FEA800E9018B712637D60E7
:103D830006125A2B12299D0255761264E290183BB3
:103D9300E068221264E2E8FAE9FB2274F5120AC32E
:103DA30074D812114D8A088B098A828B83A3A3A32B
:103DB300A3A3A3A3A3E0C3940F5003023F4F8A829C
:103DC3008B83A3A3A31264FA741512112F8A828B17
:103DD30083A3A3A3A3A3A3A3A3123F54FAA3E0FB28
:103DE30012236E7415121395E0702E8508828509CF
:103DF30083A3A3A3A3A3A3A3A3E0C3940B401A8EFB
:103E0300828F83A3A3A3A3A3A3A3A3E06402700944
:103E1300EE240B1250DFF46003023F4F74171213AA
:103E230095E0600764026003023F4F90183DE06431
:103E330002601CE0640660179017C112637D700373
:103E4300023F4F123B6E64016003023F4F80259097
:103E530017C112637D701D750800780812109078E1
:103E630008121090EE2410123F658E828F83123F4A
:103E73007E12109F8E828F83126B5212450A126438
:103E8300DE7402121395125CD312337FC0E0740404
:103E9300121395D0E0123F87F508A3E0F509740FDC
:103EA30078081213207405121395E508F07419129B
:103EB3001395E0C0E07406121395D0E0F0741B1262
:103EC3001395E0C0E07407121395D0E0F074161256
:103ED3001395E0C0E07409121395D0E0F074171243
:103EE3001395E0C0E07408121395D0E0F0EE2410AF
:103EF3001250DFC0E0740A121395D0E0F0741A1266
:103F03001395E0C0E0740B121395D0E0F074271200
:103F13001395E0C0E0740C121395D0E0F0741C12FA
:103F23001395A982AA8389088A09750A0078081259
:103F330010887C087D007410121395AA82AB83123B
:103F430050D612109FAA18AB19121FF07428024AF8
:103F530032E0F98A828B83A3A3A3A3A3A3A3A3A37E
:103F6300E022F582E43FF583E0F98E828F83A3A3F9
:103F7300A3A3A3A3A3A3A3126B7D221261F1122413
:103F83002E740222F0EE1256CAE02274F2120AC311
:103F930074F812114D8A0A8B0B8C0C8D0D890890C5
:103FA30085E3AC18AD197408120FCDC200AC0AAD8D
:103FB3000BAA18AB1912616E7002D2009018898097
:103FC30013AC0AAD0BEE240BFAE43FFB12616E70E7
:103FD3001B124BC1124854601EA20040E48E828F14
:103FE30083E0650C7004A3E0650D70E58E828F831A
:103FF300A3A3E0650870DAEEFAEFFB740802451735
:10400300C082C083901889025573C082C083901800
:1040130089E4F0A302426974F7120AC39018891263
:104023006A6B800FEA2414F582E41264F712190C08
:10403300EEFAEFFBEA4B70EC901889E4F0A3F00280
:1040430048D774F2120AC38A0C8B0DEDFF890B8AD1
:10405300828B83E08C828D83F0A3A882A9838A82DA
:104063008B8312410E124685E0C454F0FA8882898C
:1040730083E04AF0EC2402F8E43FF9850C828B8359
:10408300A3A312410E124121E0333354FC12411514
:10409300E033333354F8124115A3E0A2E0E43313C1
:1040A30013FA88828983E04AF0EC2403FE50010F5F
:1040B300E50C2407F508E4350DF509750A007808C1
:1040C3001210887C087D00EEFAEF1250D512109F73
:1040D300EE2408FE50010FE50C240FF508E4350D1E
:1040E300F50978081210887C037D00EEFAEF125070
:1040F300D512109FE50BC3940F400DE50C2412F568
:1041030082E4350D1256D9F002451AA3E08882895C
:104113008322FA88828983E04A124121A322F0850F
:104123000C828B83A3A3A3A32274F2120AC3EBFF13
:104133008C0C8D0D8A82F583E08C828D83126B3C0F
:10414300A3A882A983E012551E124500C412551874
:10415300F0EA126B461255251244FEA2E2E4338CB8
:10416300828D831244FD131313541F12551EA31281
:1041730044FDA2E7E4338C828D83A3A3A3A3A3A36B
:10418300F0EA2403FE50010FF5088F09750A007841
:10419300081210887C087D00E50C24071250D11208
:1041A300109FEE2408FE50010FF5088F09780812BE
:1041B30010887C037D00E50C240F1250D112109F50
:1041C3008E828F83A3A3A3E0C0E0126B62D0E0F0E2
:1041D30002451A74F6120AC3EAFEEBFF8A82F583DC
:1041E300A3858208858309E0F912200E850882855C
:1041F3000983E064EB601E8E828F83A3E064E16039
:10420300148E828F83A3E064F1600A8E828F83A36E
:10421300E0641A70078E828F83A3E4F0901A181259
:10422300135A12232075080178081210908E828F7A
:1042330083A3E0F5087808121090790090183B12D8
:104243005EF8901831123F7E12109F12238002589D
:10425300E6C082C083E990189B7003E48002740176
:104263008004EAF0A3EBF00255761261F1121E8886
:104273002274F6120AC390189BE0701B7C0079012C
:104283007A007B001223B0EA4B600C8A828B831284
:10429300637D60031223140258E6C082C083124771
:1042A30034401079FF1223AAE9F8902F6AE493C3EC
:1042B30098500479018002790002557674F2120A4B
:1042C300C38A0A8B0B8909C2008A828B83A3A3A3A7
:1042D300A3A3A3A3A3E0F91223B68A0C8B0DAE0C00
:1042E300AF0D750801EA4F60030243A0850A82857A
:1042F3000B83125EF2850A82850B83A3A3A3A3A378
:10430300A3A31244DF12239E8A0C8B0DAE0CAF0DB8
:10431300EA4F70030244AC8A828B83A3A3A3A3E472
:10432300F0A3F0E50A240CFAE4350BFB8A82F5834B
:10433300E0C0E01244B3D0E0F0E50A240D1244D308
:10434300240D125E18122494124BD9126339E50A14
:1043530024111244D32411125E18E50A24131265A2
:1043630009C0E0124BCBD0E0F0D200EE2406F8E413
:104373003FF91244C61245015404600302441290EB
:104383001A2AE0F50A750B007407780A12122D8EAB
:10439300828F83A3A3A3A3A3A31244BDF08E828F12
:1043A30083A3A3A3A3A3A3E0F50AA3E0F50B7407D8
:1043B300780A121320E50A5407FCE50960618E822E
:1043C3008F83A3A3A3A3A3A3A3A3A37402124A2C1F
:1043D3001247C9600B90182912515FA3A3125E1EE6
:1043E300EC7003024483EE2406F8E43FF9E8FAE9AB
:1043F3001244C6F0EC24FFF50AE434FFF50B74070E
:10440300780A12122D8A8289831244BDF080718E3C
:10441300828F83A3A3A3A3A3A3E0448002439FECBF
:10442300700575080080598E828F83A3A3A3A3A36D
:10443300A3E05420600C121870EA547F7900245FC3
:1044430080198E828F83A3A3A3A3A3A3E054106038
:104453001A121870EA540F7900240A5001098E8247
:104463008F83A3A3A3A3F0A3E9800D8E828F83A3DD
:10447300A3A3A37401F0A3E412450A740412474AE8
:10448300A20050288E828F83A3A3A3A31261F7F9FE
:10449300EEFAEFFB1223A4E96012126376600312B3
:1044A30044ECEEFAEFFB12190C750800A9088067BB
:1044B300EE240CF582E43FF58322E0450AF0A3E005
:1044C300450B228882F583E0547FF0A3E054FC225D
:1044D300F582E4350BF5831264E2EE22A3E0F9855D
:1044E3000A82850B831261F1221244F31249492295
:1044F300EE240FF582E43FF58322A3A3A3A3124581
:104503000522126525E02212450E22124A22A3A398
:10451300A322740312109F7F06020D7474F4120A0F
:10452300C374F712114D7E001223B6EA4B700302D7
:1045330045D28A828B83A3A3A3A3A3A3A3A3A3E0AC
:10454300640660030245D28A828B83A3A3A3A3A339
:10455300A3A3E0FF8A828B83126B04E0C0E074089C
:10456300121395D0E01248FA125E0B125E1E12234C
:10457300C8EF54086057851882851983125EF87A4C
:10458300007B00122398EA4B7043126B6D7C007D15
:10459300007A007B0080228E828F83125404F47091
:1045A30003A3E0F4602790183B1245D71248DC6060
:1045B3001C7C007D00EEFAEFFB1223988A0A8B0B1A
:1045C300AE0AAF0BEE4F70CF7900121EA07E01EE44
:1045D300F90237B81245DB22E0FCA3E0FD8E828F9F
:1045E3008322C082C0838A828B83E58245837009DC
:1045F3009018A080068A828B83A3A31247FD6020B4
:104603008A828B83A3A3A3A3A3A3A3E0540860E597
:10461300EC4D60101248037003A3E06D70D7800463
:104623007A007B0002557674F2120AC38A088B095A
:10463300890AECFEEDFF7A147B00121906EA4B603F
:10464300378A828B83A3A3A3A3A3A3A3A3A3E41265
:10465300469BE50A1248E6EEF0A3EF12468B124999
:10466300011246928A828B83126B8512467E1262F6
:1046730074A3124685F0A3F002451AEA240FF582CB
:10468300E422126B40A3A3221248ECE4F0A322A37A
:10469300F0126AFD1262742212469F221248F0A39E
:1046A300A3A3A32274F5120AC3EAFEEBFF890A8CC3
:1046B300088D09EA4F60757401697012790112233C
:1046C300AAE9F8902F6CE493C3985015800A7404F8
:1046D3006970091247345009791180527402697064
:1046E3004B8E828F83A3A3A3A3A3A3A3A3A3E50AB0
:1046F300124743124E191263FEA3E4F0A3F090187D
:10470300A012637D601880031264DE88828983A30C
:10471300A31247FD88828983A3A370EC80039018BA
:10472300A0EEF0A3EF12474A7900800279C1024A52
:104733003579041223AAE9F8902F6BE493C39822E6
:10474300126402A3A3A322F07A207B00901888E0CE
:10475300F91218B822C082C083E9F879009018A032
:10476300801D8A828B83A3A3A3A3A3A3A3A3A3E0F4
:1047730068600574FF687001098A828B83A3A312A2
:1047830047FD70DE02557674F7120AC3EA4B7005D3
:104793009018A080068A828B83A3A31247FD601F13
:1047A3008A828B83A3A3A3A3A3A3A3A3A3E0697078
:1047B300E4EC600F8A828B831247C970D880047A35
:1047C300007B000248D7126B1DE0540422C082C054
:1047D300839018A080068A828B83A3A31247FD606F
:1047E300128A828B83A3A3A3A3A3A3A3A3E06970C9
:1047F300E580047A007B000255761261F1EA4B22D0
:104803008A828B831254086C2274F2120AC38A0AB6
:104813008B0B8C0C8D0D750800750900EA4B602A13
:104823009018A080068E828F83A3A3124854601A27
:10483300AC0CAD0DEEFAEFFB850A82850B831229D2
:104843009DE9640170DF8E088F09AA08AB09024550
:104853001AE0FEA3E0FFEE4F2274F7120AC390188A
:10486300A01264DE7C007D00800DE8FCE9FD8882F7
:104873008983A3A31264DEE8496030EA687002EB1F
:104883006970E79018A01261EDE86A7002E96B881D
:10489300828983A3A370081264DE9018A080091292
:1048A30064DE8C828D83A3A3125E1E802774F712AD
:1048B3000AC3EAFEEBFFEA4F60151223C212493521
:1048C30012637660031244ECEEFAEFFB12190C80CC
:1048D3000312109F7F01020D741261F1121E94E9FD
:1048E300641A221248ECA3A3221248F022F08A820F
:1048F3008B83A3A3A3A322126B4012540822124654
:104903009FA32274F6120AC39018A01264FA8014AB
:104913001265171249351244ECEEFAEFFB12190C2B
:10492300AE08AF09EE4F70E89018A0E4F0A3F002D0
:1049330058E68E828F83126AF1F5831249498E827B
:104943008F8312494922E0FAA3E0FB12190C22C01B
:1049530082C083EAFCEBFDEA4D6017EA24FBF58293
:10496300EB34FF12637B70071249A7E0F460071270
:10497300187C7905802B901888E0C0E01249A7D0F5
:10498300E0F0902F6EE493F97AA27B181218B2E943
:104993006401700B7A007B201249B679008002799A
:1049A30004025576EA24FFF582EB34FFF583227A7D
:1049B300207B00901888E0F91218B82274F4120AC8
:1049C300C3A2AFE433F508C2AF9018A212485460F3
:1049D30038EE24FBF582EF34FF12637B7A007B20F1
:1049E30090188860051249B98005E0F91218BEE4F1
:1049F300F50AF50B780A12108CEEFCEFFD7AA27B18
:104A0300181218AC740212109FE508A2E092AFEEE0
:104A1300FAEFFB0237BD124A1EE022124A2222128B
:104A23004A2CA3A3A3A3A3A322F08E828F832212D3
:104A3300109F7F03020D7474F2120AC374FA1211E9
:104A43004DEAFEEBFF7508FE7509FF122386E96048
:104A5300057911024BBC1250DC603C901A44E0C44F
:104A63003354E0F8E0333354FC48C0E0EE125AEB21
:104A73003FF583D0E0126539FAA3E0FB79FF1221F9
:104A83005EEA4B60127508FFEE240F1250DF4404F8
:104A9300F01250DCD2E0F08E828F83124BF5600669
:104AA300EE2412126551EE24131250DF700D902F75
:104AB30062E493C0E0124BCBD0E0F08E828F83E0B0
:104AC300A2E7500454038019EE24141250DF70122D
:104AD30090181AE0C0E0124BC1D0E0F090181AE031
:104AE30004F0EE24111250DF64017016901A2EE0C8
:104AF300600D901825E0700A8E828F83E070031298
:104B0300654E8E828F83E064017013EE240B125383
:104B1300FE64027009EE240F1250DF4440F0AC181B
:104B2300AD19EEFAEFFB1223F28A0A8B0B74FE65C2
:104B330008700374FFF47003126517EA4B60768EF6
:104B4300828F83E0C0E07401121395D0E0F0740407
:104B5300121395EEF0A3EFF0EE241E1264D8740244
:104B6300121395125E1E740112111F880C890D78A1
:104B73000C12108CEE2420124BDE121090124BD923
:104B8300120E87EE240E124BDE12109090182E1286
:104B93000E877408121395E0F9AC08AD091223ECE3
:104BA300740812109FE9FE74106E700BAA0AAB0B07
:104BB30012190C80027E10EEF97406024517EE24DA
:104BC30014F582E43FF58322EE124BD0222413F531
:104BD30082E43FF58322EE1244F422F582E43FF5AA
:104BE30083E0F50C780C228E828F83A3A3A3A3A367
:104BF300A3A3A3A3124BFB22E0FAA3E0FB12248E90
:104C0300E922C082C08374D712114D90836F74035D
:104C130012112F7426120FCD8A828B83A3A3A3A311
:104C23001264DE740E1213951263831264DE740C25
:104C3300121395124CFE240D124CEEC0E0741A129E
:104C43001395D0E0F012627A1264DC74201213958B
:104C5300124CFE2415124CEEC0E07408121395D0CA
:104C6300E0F0EA241CF582E43B1264DC74121213B4
:104C730095124CFE2411124CEEC0E07409121395E8
:104C8300D0E0F0EA2412124CEEC0E0740712139540
:104C9300D0E0F0EA241EF582E43B1264DC742412B3
:104CA3001395124CFE2420124CEEC0E0742612130E
:104CB30095D0E0124CF674FFF0740112139574FF53
:104CC300F0740212139574FFF0908647120E8374EA
:104CD3000412112F7407121127121FE47404121007
:104CE3009F7900742912109F025576F582E43BF5F3
:104CF30083E022F085188285198322E8F0A3E9F086
:104D0300EA2274F4120AC374EC12114D8A0A8B0B53
:104D13008C088D09E9FF7E107A217B001219068524
:104D23001882851983EAF0A3EB12638DE8497003B7
:104D3300024E127C217D007900851882851983E05B
:104D4300FA12185E90183B1261ED8518828519835B
:104D5300125EFC2409F582E438F58312633974206A
:104D63001213951264DE7411121395E812546D1226
:104D7300633F38F5837402125470126B0B74021282
:104D8300545A124E19125470126AE8EFF074221238
:104D9300139512541BF9A3E0C91267E239F583E8AE
:104DA300125130A3E0C9241FF582E439124E207456
:104DB300231213951261ED7406121395126339745D
:104DC30008121395E8F07426121395126313C08228
:104DD300C083740C121395AC82AD83D083D08274DC
:104DE30005120FCD7425121395E0C0E0741312134E
:104DF30095D0E0F07900AA18AB1912238CE964016D
:104E030070047E0080098518828519831244EFEEB1
:104E1300F974140237BAE508F0A3E50922F583E52E
:104E23000AF0A3E50BF02274F0120AC374FF121107
:104E33004DEAFEEBFF8C088D098A82F583A3740883
:104E4300F0EA24161250DF60088A828B83A3741061
:104E5300F0EA24171250DF60098A828B83A3E024CF
:104E630008F0EA1250DD60088A828B83A3E004F025
:104E73008A828B83A3A3A3A3A3A3E060198A828B53
:104E830083A3A3A3A3A3A3A3E0C3332402F88A8227
:104E93008B83A3E028F0EA24111250E76004740E18
:104EA3008001E4F0901A3CE0640170168A828B83DF
:104EB300E06401600D9017A7E060071250C774010A
:104EC30080041250C7E41251308A828B83A3E0F826
:104ED300EA12337F28298C828D83F0EA2411125041
:104EE300DF600512570829F0850882850983E0C32E
:104EF30094754009750C00750D000250BEE0FA7BF5
:104F0300001219068A0C8B0DEA4B70030250BE8EF9
:104F1300828F83E0FA90182B1251297402780812B9
:104F2300122DEA4508FAAB09EE2412125123740636
:104F3300780812122DA808EA48FCEBFD1250DC6039
:104F430004780180027800EE2416FAE43FFBE4C8FB
:104F5300F9ED49FDEE24111250DFF50888097409B3
:104F6300780812122DED4509FD8A828B831251298F
:104F7300740B780812122DED4509FDEE241712511A
:104F830023740C780812122DED4509FD8E828F8350
:104F9300A3A3A3A3A3A3125129740A780812122D61
:104FA300ED4509FDEE2423125123740D78081212E6
:104FB3002DED4509F9EC850C82850D83F0E9A3F00D
:104FC300EE2402125106125145F0EE24041251064A
:104FD300A3A3125145A3A3F0EE2413125116F0EE2E
:104FE3002414125116A3F0750B088A828B83E06098
:104FF300151263EF125EF8E50C2408FAE4350DFB95
:105003001219F6750B10EE24171250DF6019125F98
:105013007B125EF8A80BE50C28FAE4350DFB121998
:10502300F67408250BF50B8E828F83A3A3A3A3A38A
:10503300A3E0604EEE2407F50EE43FF50F850E82E4
:10504300F583E0C0E01250F5D0E0125135E0C0E046
:10505300081250F7D0E0125135A312636912108879
:10506300850E82850F83E01253CFA80BE50C28121F
:1050730050D112109F850E82850F83E0C333250B19
:10508300F50B1250DC6008C0E01250F5D0E0F012CE
:1050930056C512636912108812337EFC7D007403B7
:1050A3001213951250FEE0F8E50C28F8E4350DF9DB
:1050B300E82AFAE4391250D512109FAA0CAB0D74EA
:1050C30001026352EA2423F582E43FF58322FAE4E2
:1050D300350DFB121852740322EE2415F582E43FBA
:1050E300F583E022F582E43FF583E0851882851994
:1050F3008322A80BE50C281253E222E0FA8E828F5A
:1051030083A322F8E43FF98882F583E0850C828546
:105113000D8322F582E43FF58312514FA3A3A3220B
:10512300F582E43FF583E0F50875090022126B2E42
:10513300F922F0050B8E828F83A3A3A3A3A3A3A3BA
:10514300A322A3A3126525A312514F22E0850C824B
:10515300850D83A3A3A32274030237BA1264E28EDC
:10516300828F83A3A32274F0120AC374FD12114D1C
:105173001263337402121395E9F08C0C8D0D750BC9
:10518300017C267D007900AA0CAB0D12185E740217
:10519300121395E0C39408500302535812510EF0B2
:1051A300AC0CAD0D851882851983125404FA851849
:1051B30082851983125A2A125701E96003750B007D
:1051C300851882851983126313125425E0F9EA8541
:1051D3000C82850D83A3A3A3A3A3A3A3A3A3F0A3DB
:1051E300E912545AA3A3125425A3A3E0F9E50C1220
:1051F3006392EA12546D125EE8C0E0E50C241112CA
:105203006B66D0E01254702407F582E438F583E02E
:10521300C0E0126B62D0E01263267408125451A3EB
:10522300E06026851882851983E02408F8A3E0341A
:1052330000F9E50C2413F582E4350D125E1C850C90
:1052430082850D83A3E02408F0850C82850D83A35A
:10525300A3A3A3A3A3A3A3E0602A850C82850D8344
:10526300A385820E85830F125412F8A3E03400F94C
:10527300E50C125AEB350D125E1C850E82850F83E9
:10528300E02408F01253D6E4F01253EAE4F0A31238
:105293006326A3A3A3A3E06011125436850C828571
:1052A3000D83A3A3A3A3A3125462E50C1253F7E047
:1052B3007003025344125436FA1253D6EA1254625C
:1052C300F8851882851983E028FBA3E034008B82DC
:1052D300F583E0F8E50C241A126B66E8125462E8D1
:1052E300C39AE50C50561253F2F8902F64E493C31B
:1052F3009850047E0C8006E50C1253F2FE850C8256
:10530300850D83125411F508A3E03400F509750ADD
:10531300007808121088EE1253CF7A927B0D125048
:10532300D612109F1253EA7492F0A3740DF0EEC3D9
:1053330033F8850E82850F83E02880041253F7E447
:10534300F0850C82850D83A3E0F8850C82850D839F
:10535300E0C398500479008070125411FAA3E0342A
:1053630000FBE50C126548126B69126339850C82E8
:10537300850D83E0C398C0E0E50C2417126B66D05B
:10538300E0125451E06040E50C2417FEE4350DFFB4
:105393008E82F583E024F2F0E50C241DF8E4350D4C
:1053A300F98882F583E0240EFAA3E03400FB8882B7
:1053B3008983126339901826E0F91222E4E9F88E02
:1053C300828F83E0C398F0A90B02635025E0FCE4CD
:1053D30033FD22E50C1253DC2224191253E222F589
:1053E30082E4350DF58322E50C241B1253E22212CD
:1053F30053DCE0221263201253E522F582E43FF5E9
:1054030083125408221264E7F5838882E022A312F0
:1054130054162212541B2822E0F88518828519831A
:10542300E022A3A3E0FA851882851983126319A3E6
:10543300A3A322850C82850D83A385820E85830F0A
:10544300125416FAA3E034008A82F583E022126331
:105453002AA3A3A3A3A322125475F583888222F05F
:10546300850E82850F83E004F022F0A3E9125475C0
:10547300C822126B32F8A3E02274F4120AC38A081A
:105483008B09EA125525A3A3F0EA1313543F1255CF
:1054930018A3F0EAC4131312552512552F74097873
:1054A3000A12132012550FA3A3A3A3A3A3F0EB1275
:1054B300551112552E740A780A121320E50A540165
:1054C300C0E0EC1263203DF583D0E0125533740B3A
:1054D300780A12132012550F12552C740C780A12E5
:1054E300132012550FA312552C740D780A12132092
:1054F300E50A5401C0E0EC2424F582E43DF583D0B1
:10550300E0F0740E78081213200237A9E50A54015B
:105513008C828D832212551EA3A322540F8C828D5D
:10552300832254038C828D8322A3A3A3A3A3A3A3C7
:10553300F08A0A8B0B22C082C08379008A828B8314
:10554300A3A3A3A3A3A3E0901825600EE0701F8A72
:10555300828B83A3A3E070168012E060111261E0D6
:1055630090182EE06A7003A3E06B60027901800358
:105573001261EDD083D08202105174F2120AC38AF1
:105583000A8B0B890CECFEEDFF8A828B83E0FA1207
:105593005701850A82850B83A3A31256F5E0F9EA26
:1055A3008E828F83A3A3A3A3A3A3A3A3A312571A98
:1055B3001256F5A3A3E0F91256C5EA12571AA3A38C
:1055C300E0C0E0EE2411F582E43FF583D0E012570A
:1055D30021A3A3A3E0C0E0EE2412F582E43FF58308
:1055E300D0E01263FE7408124743A3A3A3E060173D
:1055F300E50A2408F8E4350BF9124BCBE8F0A3E9EC
:105603001263FEE02408F08E828F83A3A3A3A3A3D7
:10561300A3A3A3E060188E828F83A31256E4EE2423
:1056230015125E18850882850983E02408F08E82AE
:105633008F83A3A3A3A3A3E060248E828F83A38578
:105643008208858309E0F8E50A28F582E4350B1220
:1056530056D9A3A3F0850882850983E004F0EEFA06
:10566300EFFB122404E9F50D70498E828F83A3A307
:10567300A3A3A3A31256D3A37014E0F8E50A28FA50
:10568300E4350BFB1256BB126339E50C801A125634
:10569300E4E8240EF8500109EE241D125E18125797
:1056A30008F9E50CC39924F2C398C0E0EE125F72C7
:1056B300D0E0F0A90D02451AEE241DF582E43FF572
:1056C3008322EE1256CA22240BF582E43FF583228D
:1056D300E08E828F8322F583E08E828F83A3A3A340
:1056E30022858208858309E0F8E50A28F8E4350B6A
:1056F300F922E0FA850A82850B83A3A3A32212650C
:105703005A1223FE22901826E0F91222E4E9F885C2
:105713000882850983E022F0A3E912572122F0854C
:105723000A82850B83A3A3A3A322C082C0837AAE7C
:105733007B1879E2121E6A7AAE7B18025576C08214
:10574300C08390182E025573C082C0839018310213
:105753005573C082C083794A121E6A02557674F665
:10576300120AC39018B6E0FE04F0EEF91223B6EA6B
:105773004B70F0EE60EDF90258E674F2120AC3EAD8
:10578300FEEBFF8C088D09890A1224F4740E1213A0
:1057930095E0F9740F121395E0F8EA4B7012E87074
:1057A3001BA90AAC08AD09EEFAEFFB1225128065BE
:1057B300E86017E970068A828B83E4F074016870ED
:1057C30054E99018B97024E4801EE97048EA240271
:1057D300124CEEA80A28F8E4340013E813F07035ED
:1057E3008A828B83A3A37401F0802AE004F0901AC9
:1057F3002BE0F89018B9E0C398401AE4F090183100
:10580300E06E7003A3E06F700CEEFAEFFB79011208
:10581300200812581B02451A7A017B00901888E071
:10582300F91219CC2274F4120AC38A088B098C0A60
:105833008D0B90861F780812118D70077A0112491B
:10584300B4801E901A18780812132FEA4B4C4D603F
:105853000D780812108412355812109F80031258C5
:105863001B0237BDC082C083901A1C024265C082EE
:10587300C083901A1E02426574F6120AC37E007535
:10588300081A750918780812108C7C6E7D007A212D
:105893007B0012197E740212109FE9640A70027E63
:1058A30001121F66E9640A7004EED2E1FE9004C798
:1058B30012637D600F125A2B12299DE9640A70044A
:1058C300EED2E3FE122170E9640A7004EED2E4FE24
:1058D300121DECE9640A7004EED2E5FEEEF98003D2
:1058E30012109F7F02020D7474F6120AC31218106D
:1058F30075081A750918780812108C75086E7509E1
:1059030000780812108C12592812109F121F6C90E5
:1059130004C912637D6006125A2B12299D12217647
:10592300121DFE80BE7C007D007A217B0012198A45
:1059330074042274F6120AC374FF12114D7E0075AB
:10594300081A750918780812108C7C6E7D007A216C
:105953007B0012197E740212109FE96003025A023F
:10596300780812108C75086E8E09780812108C7CDA
:10597300007D007A217B00121990740412109FE9B4
:10598300707D90182EE064FE7003A3E0F460707ED7
:105993000190183DE064086005E06404705C8518BC
:1059A30082851983EE125A427A457B187943121E77
:1059B300707A427B187947121E707A337B18794AC2
:1059C300125A1D7A3B7B187950121E707A2E7B185F
:1059D3007953121E707A437B187954121E707A30F1
:1059E3007B1879E1121E70901828E0A2E35004D2CC
:1059F300F08002C2F0125A2F80051218107E001296
:105A03001F5A9004CB12637D6006125A2B12299DF4
:105A1300122182EEF974010258E3121E707A317B6F
:105A230018794B121E7022A312631A22A2F0E433D8
:105A3300851882851983125AA17952121E70221277
:105A43005AA17942121E702274F6120AC3E9FEA209
:105A5300E0501C75081A750918780812108C75081F
:105A63006E750900780812108C12592812109FEED7
:105A7300A2E35003121F60EEA2E2500E9004CD1277
:105A8300637D6006125A2B12299D0258E612236881
:105A93007A8B7B187945121E7022125AA122F0AA22
:105AA30018AB192274F7120AC374ED12114DE9FEF3
:105AB300901887F0AC18AD19125AD37412121395BB
:105AC300EE125AE0AA18AB19125A9074130248D472
:105AD300901AABE0F97A8B7B1812236E22F0901A9E
:105AE300ABE0F97C8B7D18222415F582E422126A3F
:105AF300FE3509F58322EFFB901888E0F91218822E
:105B030022EE2416125B0B22F582E43FF583740127
:105B1300F022126AFD3FF583125B1F221264E7F93C
:105B23008882F5832274F4120AC38A088B097A00E7
